{
  "contractName": "PredictionMarket",
  "abi": [
    {
      "inputs": [
        {
          "internalType": "address",
          "name": "_oracle",
          "type": "address"
        }
      ],
      "stateMutability": "nonpayable",
      "type": "constructor"
    },
    {
      "anonymous": false,
      "inputs": [
        {
          "indexed": true,
          "internalType": "address",
          "name": "accountAdress",
          "type": "address"
        }
      ],
      "name": "LogEnrolled",
      "type": "event"
    },
    {
      "anonymous": false,
      "inputs": [
        {
          "indexed": true,
          "internalType": "address",
          "name": "accountAddress",
          "type": "address"
        },
        {
          "indexed": true,
          "internalType": "uint256",
          "name": "amount",
          "type": "uint256"
        }
      ],
      "name": "LogPlaceBet",
      "type": "event"
    },
    {
      "anonymous": false,
      "inputs": [
        {
          "indexed": true,
          "internalType": "address",
          "name": "previousOwner",
          "type": "address"
        },
        {
          "indexed": true,
          "internalType": "address",
          "name": "newOwner",
          "type": "address"
        }
      ],
      "name": "OwnershipTransferred",
      "type": "event"
    },
    {
      "inputs": [
        {
          "internalType": "enum PredictionMarket.Side",
          "name": "",
          "type": "uint8"
        }
      ],
      "name": "bets",
      "outputs": [
        {
          "internalType": "uint256",
          "name": "",
          "type": "uint256"
        }
      ],
      "stateMutability": "view",
      "type": "function",
      "constant": true
    },
    {
      "inputs": [
        {
          "internalType": "address",
          "name": "",
          "type": "address"
        },
        {
          "internalType": "enum PredictionMarket.Side",
          "name": "",
          "type": "uint8"
        }
      ],
      "name": "betsPerGambler",
      "outputs": [
        {
          "internalType": "uint256",
          "name": "",
          "type": "uint256"
        }
      ],
      "stateMutability": "view",
      "type": "function",
      "constant": true
    },
    {
      "inputs": [
        {
          "internalType": "address",
          "name": "",
          "type": "address"
        }
      ],
      "name": "enrolled",
      "outputs": [
        {
          "internalType": "bool",
          "name": "",
          "type": "bool"
        }
      ],
      "stateMutability": "view",
      "type": "function",
      "constant": true
    },
    {
      "inputs": [],
      "name": "oracle",
      "outputs": [
        {
          "internalType": "address",
          "name": "",
          "type": "address"
        }
      ],
      "stateMutability": "view",
      "type": "function",
      "constant": true
    },
    {
      "inputs": [],
      "name": "owner",
      "outputs": [
        {
          "internalType": "address",
          "name": "",
          "type": "address"
        }
      ],
      "stateMutability": "view",
      "type": "function",
      "constant": true
    },
    {
      "inputs": [],
      "name": "renounceOwnership",
      "outputs": [],
      "stateMutability": "nonpayable",
      "type": "function"
    },
    {
      "inputs": [
        {
          "internalType": "address",
          "name": "newOwner",
          "type": "address"
        }
      ],
      "name": "transferOwnership",
      "outputs": [],
      "stateMutability": "nonpayable",
      "type": "function"
    },
    {
      "inputs": [],
      "name": "CircuitBreaker",
      "outputs": [],
      "stateMutability": "nonpayable",
      "type": "function"
    },
    {
      "inputs": [
        {
          "internalType": "enum PredictionMarket.Side",
          "name": "_side",
          "type": "uint8"
        }
      ],
      "name": "placeBet",
      "outputs": [],
      "stateMutability": "payable",
      "type": "function",
      "payable": true
    },
    {
      "inputs": [],
      "name": "enroll",
      "outputs": [
        {
          "internalType": "bool",
          "name": "",
          "type": "bool"
        }
      ],
      "stateMutability": "nonpayable",
      "type": "function"
    },
    {
      "inputs": [
        {
          "internalType": "enum PredictionMarket.Side",
          "name": "_side",
          "type": "uint8"
        }
      ],
      "name": "amountBet",
      "outputs": [
        {
          "internalType": "uint256",
          "name": "",
          "type": "uint256"
        }
      ],
      "stateMutability": "view",
      "type": "function",
      "constant": true
    },
    {
      "inputs": [],
      "name": "withdrawGain",
      "outputs": [],
      "stateMutability": "nonpayable",
      "type": "function"
    },
    {
      "inputs": [
        {
          "internalType": "enum PredictionMarket.Side",
          "name": "_winner",
          "type": "uint8"
        },
        {
          "internalType": "enum PredictionMarket.Side",
          "name": "_loser",
          "type": "uint8"
        }
      ],
      "name": "reportResult",
      "outputs": [],
      "stateMutability": "nonpayable",
      "type": "function"
    }
  ],
  "bytecode": "0x60806040526001600260016101000a81548160ff02191690831515021790555034801561002b57600080fd5b506040516112ed3803806112ed8339818101604052602081101561004e57600080fd5b8101908080519060200190929190505050600061006f61019560201b60201c565b9050806000806101000a81548173ffffffffffffffffffffffffffffffffffffffff021916908373ffffffffffffffffffffffffffffffffffffffff1602179055508073ffffffffffffffffffffffffffffffffffffffff16600073ffffffffffffffffffffffffffffffffffffffff167f8be0079c531659141344cd1fd0a4f28419497f9722a3daafe3b4186f6b6457e060405160405180910390a35080600660006101000a81548173ffffffffffffffffffffffffffffffffffffffff021916908373ffffffffffffffffffffffffffffffffffffffff16021790555033600760006101000a81548173ffffffffffffffffffffffffffffffffffffffff021916908373ffffffffffffffffffffffffffffffffffffffff1602179055505061019d565b600033905090565b611141806101ac6000396000f3fe6080604052600436106100c25760003560e01c8063715018a61161007f5780638da5cb5b116100595780638da5cb5b146102d45780639d5a373914610315578063e65f2a7e14610387578063f2fde38b146103b4576100c2565b8063715018a61461022a5780637dc0d1d0146102415780637e0ecc0014610282576100c2565b806310eb0e0e146100c75780632b539c861461012e57806333d3510514610145578063430468441461015c578063461371db1461018d5780634ec942b7146101df575b600080fd5b3480156100d357600080fd5b50610116600480360360208110156100ea57600080fd5b81019080803573ffffffffffffffffffffffffffffffffffffffff169060200190929190505050610405565b60405180821515815260200191505060405180910390f35b34801561013a57600080fd5b50610143610425565b005b34801561015157600080fd5b5061015a61076c565b005b61018b6004803603602081101561017257600080fd5b81019080803560ff169060200190929190505050610812565b005b34801561019957600080fd5b506101c9600480360360208110156101b057600080fd5b81019080803560ff169060200190929190505050610a13565b6040518082815260200191505060405180910390f35b3480156101eb57600080fd5b506102286004803603604081101561020257600080fd5b81019080803560ff169060200190929190803560ff169060200190929190505050610a83565b005b34801561023657600080fd5b5061023f610bd1565b005b34801561024d57600080fd5b50610256610d57565b604051808273ffffffffffffffffffffffffffffffffffffffff16815260200191505060405180910390f35b34801561028e57600080fd5b506102be600480360360208110156102a557600080fd5b81019080803560ff169060200190929190505050610d7d565b6040518082815260200191505060405180910390f35b3480156102e057600080fd5b506102e9610d95565b604051808273ffffffffffffffffffffffffffffffffffffffff16815260200191505060405180910390f35b34801561032157600080fd5b506103716004803603604081101561033857600080fd5b81019080803573ffffffffffffffffffffffffffffffffffffffff169060200190929190803560ff169060200190929190505050610dbe565b6040518082815260200191505060405180910390f35b34801561039357600080fd5b5061039c610de3565b60405180821515815260200191505060405180910390f35b3480156103c057600080fd5b50610403600480360360208110156103d757600080fd5b81019080803573ffffffffffffffffffffffffffffffffffffffff169060200190929190505050610ed2565b005b60036020528060005260406000206000915054906101000a900460ff1681565b60011515600260019054906101000a900460ff1615151461044557600080fd5b6000600560003373ffffffffffffffffffffffffffffffffffffffff1673ffffffffffffffffffffffffffffffffffffffff1681526020019081526020016000206000600160000160009054906101000a900460ff1660018111156104a657fe5b60018111156104b157fe5b815260200190815260200160002054905060008111610538576040517f08c379a000000000000000000000000000000000000000000000000000000000815260040180806020018281038252601f8152602001807f796f7520646f206e6f74206861766520616e792077696e6e696e67206265740081525060200191505060405180910390fd5b60011515600260009054906101000a900460ff161515146105c1576040517f08c379a00000000000000000000000000000000000000000000000000000000081526004018080602001828103825260158152602001807f67616d65206e6f742066696e697368656420796574000000000000000000000081525060200191505060405180910390fd5b600060046000600160000160009054906101000a900460ff1660018111156105e557fe5b60018111156105f057fe5b8152602001908152602001600020548260046000600160000160019054906101000a900460ff16600181111561062257fe5b600181111561062d57fe5b815260200190815260200160002054028161064457fe5b04820190506000600560003373ffffffffffffffffffffffffffffffffffffffff1673ffffffffffffffffffffffffffffffffffffffff168152602001908152602001600020600080600181111561069857fe5b60018111156106a357fe5b8152602001908152602001600020819055506000600560003373ffffffffffffffffffffffffffffffffffffffff1673ffffffffffffffffffffffffffffffffffffffff168152602001908152602001600020600060018081111561070457fe5b600181111561070f57fe5b8152602001908152602001600020819055503373ffffffffffffffffffffffffffffffffffffffff166108fc829081150290604051600060405180830381858888f19350505050158015610767573d6000803e3d6000fd5b505050565b60011515600260019054906101000a900460ff1615151461078c57600080fd5b3373ffffffffffffffffffffffffffffffffffffffff16600760009054906101000a900473ffffffffffffffffffffffffffffffffffffffff1673ffffffffffffffffffffffffffffffffffffffff16146107e657600080fd5b600260019054906101000a900460ff1615600260016101000a81548160ff021916908315150217905550565b60011515600260019054906101000a900460ff1615151461083257600080fd5b60001515600260009054906101000a900460ff161515146108bb576040517f08c379a00000000000000000000000000000000000000000000000000000000081526004018080602001828103825260108152602001807f67616d652069732066696e69736865640000000000000000000000000000000081525060200191505060405180910390fd5b34600460008360018111156108cc57fe5b60018111156108d757fe5b81526020019081526020016000206000828254019250508190555034600560003373ffffffffffffffffffffffffffffffffffffffff1673ffffffffffffffffffffffffffffffffffffffff168152602001908152602001600020600083600181111561094057fe5b600181111561094b57fe5b815260200190815260200160002060008282540192505081905550600560003373ffffffffffffffffffffffffffffffffffffffff1673ffffffffffffffffffffffffffffffffffffffff16815260200190815260200160002060008260018111156109b357fe5b60018111156109be57fe5b8152602001908152602001600020543373ffffffffffffffffffffffffffffffffffffffff167fdb1f81b27a0cfe04c709176ef27f5b6ba5e3f9630c8138609a56ac7fdcac8cc760405160405180910390a350565b6000600560003373ffffffffffffffffffffffffffffffffffffffff1673ffffffffffffffffffffffffffffffffffffffff1681526020019081526020016000206000836001811115610a6257fe5b6001811115610a6d57fe5b8152602001908152602001600020549050919050565b60011515600260019054906101000a900460ff16151514610aa357600080fd5b3373ffffffffffffffffffffffffffffffffffffffff16600660009054906101000a900473ffffffffffffffffffffffffffffffffffffffff1673ffffffffffffffffffffffffffffffffffffffff1614610b66576040517f08c379a000000000000000000000000000000000000000000000000000000000815260040180806020018281038252600b8152602001807f6f6e6c79206f7261636c6500000000000000000000000000000000000000000081525060200191505060405180910390fd5b81600160000160006101000a81548160ff02191690836001811115610b8757fe5b021790555080600160000160016101000a81548160ff02191690836001811115610bad57fe5b02179055506001600260006101000a81548160ff0219169083151502179055505050565b610bd96110dd565b73ffffffffffffffffffffffffffffffffffffffff1660008054906101000a900473ffffffffffffffffffffffffffffffffffffffff1673ffffffffffffffffffffffffffffffffffffffff1614610c99576040517f08c379a00000000000000000000000000000000000000000000000000000000081526004018080602001828103825260208152602001807f4f776e61626c653a2063616c6c6572206973206e6f7420746865206f776e657281525060200191505060405180910390fd5b600073ffffffffffffffffffffffffffffffffffffffff1660008054906101000a900473ffffffffffffffffffffffffffffffffffffffff1673ffffffffffffffffffffffffffffffffffffffff167f8be0079c531659141344cd1fd0a4f28419497f9722a3daafe3b4186f6b6457e060405160405180910390a360008060006101000a81548173ffffffffffffffffffffffffffffffffffffffff021916908373ffffffffffffffffffffffffffffffffffffffff160217905550565b600660009054906101000a900473ffffffffffffffffffffffffffffffffffffffff1681565b60046020528060005260406000206000915090505481565b60008060009054906101000a900473ffffffffffffffffffffffffffffffffffffffff16905090565b6005602052816000526040600020602052806000526040600020600091509150505481565b60006001600360003373ffffffffffffffffffffffffffffffffffffffff1673ffffffffffffffffffffffffffffffffffffffff16815260200190815260200160002060006101000a81548160ff0219169083151502179055503373ffffffffffffffffffffffffffffffffffffffff167f990c442e6adb818b8fa7db3cf1023decd07f7b66e5306928c7ed527d974192bb60405160405180910390a2600360003373ffffffffffffffffffffffffffffffffffffffff1673ffffffffffffffffffffffffffffffffffffffff16815260200190815260200160002060009054906101000a900460ff16905090565b610eda6110dd565b73ffffffffffffffffffffffffffffffffffffffff1660008054906101000a900473ffffffffffffffffffffffffffffffffffffffff1673ffffffffffffffffffffffffffffffffffffffff1614610f9a576040517f08c379a00000000000000000000000000000000000000000000000000000000081526004018080602001828103825260208152602001807f4f776e61626c653a2063616c6c6572206973206e6f7420746865206f776e657281525060200191505060405180910390fd5b600073ffffffffffffffffffffffffffffffffffffffff168173ffffffffffffffffffffffffffffffffffffffff161415611020576040517f08c379a00000000000000000000000000000000000000000000000000000000081526004018080602001828103825260268152602001806110e66026913960400191505060405180910390fd5b8073ffffffffffffffffffffffffffffffffffffffff1660008054906101000a900473ffffffffffffffffffffffffffffffffffffffff1673ffffffffffffffffffffffffffffffffffffffff167f8be0079c531659141344cd1fd0a4f28419497f9722a3daafe3b4186f6b6457e060405160405180910390a3806000806101000a81548173ffffffffffffffffffffffffffffffffffffffff021916908373ffffffffffffffffffffffffffffffffffffffff16021790555050565b60003390509056fe4f776e61626c653a206e6577206f776e657220697320746865207a65726f2061646472657373a264697066735822122016ad70431b7f95d7af20153b7fb10235212efbfc2ae9a75c2f1c3d0d227efd8c64736f6c63430007030033",
  "immutableReferences": {},
  "source": "import \"./Ownable.sol\";\r\n\r\npragma solidity ^0.7.3;\r\n\r\ncontract PredictionMarket is Ownable {\r\n  enum Side { Suning, Damwon }\r\n  struct Result {\r\n    Side winner;\r\n    Side loser;\r\n  }\r\n  Result result;\r\n  bool gameisDone;\r\n  bool isActive = true;\r\n  mapping (address => bool) public enrolled;\r\n  mapping(Side => uint) public bets;\r\n  mapping(address => mapping(Side => uint)) public betsPerGambler;\r\n  address public oracle;\r\n  address admin;\r\n  event LogEnrolled(address indexed accountAdress);\r\n  event LogPlaceBet(address indexed accountAddress, uint indexed amount);\r\n\r\n  constructor(address _oracle) {\r\n    oracle = _oracle; \r\n    admin = msg.sender;\r\n    }\r\n  function CircuitBreaker() external activeContract() {\r\n    require(admin == msg.sender);\r\n    isActive = !isActive;\r\n  }\r\n  function placeBet(Side _side) external payable activeContract() {\r\n    require(gameisDone == false, 'game is finished');\r\n    bets[_side] += msg.value;\r\n    betsPerGambler[msg.sender][_side] += msg.value;\r\n    emit LogPlaceBet(msg.sender, betsPerGambler[msg.sender][_side]);\r\n  }\r\n  function enroll() public returns (bool){\r\n        enrolled[msg.sender] = true;\r\n        emit LogEnrolled(msg.sender);\r\n        return enrolled[msg.sender]; \r\n  }\r\n  function amountBet(Side _side) public view returns(uint)\r\n  {\r\n   return betsPerGambler[msg.sender][_side]; \r\n  }\r\n  function withdrawGain() external activeContract() {\r\n    uint gamblerBet = betsPerGambler[msg.sender][result.winner];\r\n    require(gamblerBet > 0, 'you do not have any winning bet');  \r\n    require(gameisDone == true, 'game not finished yet');\r\n    uint gain = gamblerBet + bets[result.loser] * gamblerBet / bets[result.winner];\r\n    betsPerGambler[msg.sender][Side.Suning] = 0;\r\n    betsPerGambler[msg.sender][Side.Damwon] = 0;\r\n    msg.sender.transfer(gain);\r\n  }\r\n\r\n  function reportResult(Side _winner, Side _loser) external activeContract() {\r\n    require(oracle == msg.sender, 'only oracle');\r\n    result.winner = _winner;\r\n    result.loser = _loser;\r\n    gameisDone = true;\r\n  }\r\n  function kill() private\r\n    {\r\n           if(msg.sender == owner()) selfdestruct(address(uint160(owner()))); \r\n    }\r\n modifier activeContract() {\r\n   require(isActive == true);\r\n   _;\r\n }\r\n}\r\n",
  "sourcePath": "D:/ConsensysAcademy/prediction market/contracts/PredictionMarket.sol",
  "compiler": {
    "name": "solc",
    "version": "0.7.3+commit.9bfce1f6.Emscripten.clang"
  },
  "schemaVersion": "3.3.2",
  "updatedAt": "2020-11-26T22:01:36.349Z",
  "networkType": "ethereum",
  "devdoc": {
    "kind": "dev",
    "methods": {
      "owner()": {
        "details": "Returns the address of the current owner."
      },
      "renounceOwnership()": {
        "details": "Leaves the contract without owner. It will not be possible to call `onlyOwner` functions anymore. Can only be called by the current owner. NOTE: Renouncing ownership will leave the contract without an owner, thereby removing any functionality that is only available to the owner."
      },
      "transferOwnership(address)": {
        "details": "Transfers ownership of the contract to a new account (`newOwner`). Can only be called by the current owner."
      }
    },
    "version": 1
  },
  "userdoc": {
    "kind": "user",
    "methods": {},
    "version": 1
  }
}